{
  "contractName": "Marketplace",
  "abi": [
    {
      "inputs": [
        {
          "internalType": "address",
          "name": "_tokenAddress",
          "type": "address"
        }
      ],
      "stateMutability": "nonpayable",
      "type": "constructor"
    },
    {
      "anonymous": false,
      "inputs": [
        {
          "indexed": true,
          "internalType": "address",
          "name": "previousOwner",
          "type": "address"
        },
        {
          "indexed": true,
          "internalType": "address",
          "name": "newOwner",
          "type": "address"
        }
      ],
      "name": "OwnershipTransferred",
      "type": "event"
    },
    {
      "anonymous": false,
      "inputs": [
        {
          "indexed": false,
          "internalType": "uint256",
          "name": "productId",
          "type": "uint256"
        },
        {
          "indexed": false,
          "internalType": "string",
          "name": "name",
          "type": "string"
        },
        {
          "indexed": false,
          "internalType": "uint256",
          "name": "priceInTokens",
          "type": "uint256"
        },
        {
          "indexed": false,
          "internalType": "address",
          "name": "seller",
          "type": "address"
        }
      ],
      "name": "ProductAdded",
      "type": "event"
    },
    {
      "anonymous": false,
      "inputs": [
        {
          "indexed": false,
          "internalType": "uint256",
          "name": "productId",
          "type": "uint256"
        },
        {
          "indexed": false,
          "internalType": "string",
          "name": "name",
          "type": "string"
        },
        {
          "indexed": false,
          "internalType": "uint256",
          "name": "priceInTokens",
          "type": "uint256"
        },
        {
          "indexed": false,
          "internalType": "address",
          "name": "buyer",
          "type": "address"
        },
        {
          "indexed": false,
          "internalType": "address",
          "name": "seller",
          "type": "address"
        }
      ],
      "name": "ProductPurchased",
      "type": "event"
    },
    {
      "inputs": [
        {
          "internalType": "address",
          "name": "_addr",
          "type": "address"
        }
      ],
      "name": "kycCompleted",
      "outputs": [
        {
          "internalType": "bool",
          "name": "",
          "type": "bool"
        }
      ],
      "stateMutability": "view",
      "type": "function",
      "constant": true
    },
    {
      "inputs": [],
      "name": "myToken",
      "outputs": [
        {
          "internalType": "contract IERC20",
          "name": "",
          "type": "address"
        }
      ],
      "stateMutability": "view",
      "type": "function",
      "constant": true
    },
    {
      "inputs": [],
      "name": "owner",
      "outputs": [
        {
          "internalType": "address",
          "name": "",
          "type": "address"
        }
      ],
      "stateMutability": "view",
      "type": "function",
      "constant": true
    },
    {
      "inputs": [],
      "name": "productCounter",
      "outputs": [
        {
          "internalType": "uint256",
          "name": "",
          "type": "uint256"
        }
      ],
      "stateMutability": "view",
      "type": "function",
      "constant": true
    },
    {
      "inputs": [
        {
          "internalType": "uint256",
          "name": "",
          "type": "uint256"
        }
      ],
      "name": "products",
      "outputs": [
        {
          "internalType": "uint256",
          "name": "id",
          "type": "uint256"
        },
        {
          "internalType": "string",
          "name": "name",
          "type": "string"
        },
        {
          "internalType": "uint256",
          "name": "price",
          "type": "uint256"
        },
        {
          "internalType": "address payable",
          "name": "seller",
          "type": "address"
        },
        {
          "internalType": "address",
          "name": "buyer",
          "type": "address"
        },
        {
          "internalType": "enum Marketplace.ProductStatus",
          "name": "status",
          "type": "uint8"
        }
      ],
      "stateMutability": "view",
      "type": "function",
      "constant": true
    },
    {
      "inputs": [],
      "name": "renounceOwnership",
      "outputs": [],
      "stateMutability": "nonpayable",
      "type": "function"
    },
    {
      "inputs": [
        {
          "internalType": "address",
          "name": "_addr",
          "type": "address"
        }
      ],
      "name": "setKycCompleted",
      "outputs": [],
      "stateMutability": "nonpayable",
      "type": "function"
    },
    {
      "inputs": [
        {
          "internalType": "address",
          "name": "_addr",
          "type": "address"
        }
      ],
      "name": "setKycRevoked",
      "outputs": [],
      "stateMutability": "nonpayable",
      "type": "function"
    },
    {
      "inputs": [
        {
          "internalType": "address",
          "name": "newOwner",
          "type": "address"
        }
      ],
      "name": "transferOwnership",
      "outputs": [],
      "stateMutability": "nonpayable",
      "type": "function"
    },
    {
      "inputs": [
        {
          "internalType": "string",
          "name": "_name",
          "type": "string"
        },
        {
          "internalType": "uint256",
          "name": "_price",
          "type": "uint256"
        }
      ],
      "name": "addProduct",
      "outputs": [],
      "stateMutability": "nonpayable",
      "type": "function"
    },
    {
      "inputs": [
        {
          "internalType": "uint256",
          "name": "_productId",
          "type": "uint256"
        }
      ],
      "name": "purchaseProduct",
      "outputs": [],
      "stateMutability": "nonpayable",
      "type": "function"
    },
    {
      "inputs": [
        {
          "internalType": "uint256",
          "name": "_productId",
          "type": "uint256"
        }
      ],
      "name": "getProducts",
      "outputs": [
        {
          "internalType": "uint256",
          "name": "id",
          "type": "uint256"
        },
        {
          "internalType": "string",
          "name": "name",
          "type": "string"
        },
        {
          "internalType": "uint256",
          "name": "price",
          "type": "uint256"
        },
        {
          "internalType": "address payable",
          "name": "seller",
          "type": "address"
        },
        {
          "internalType": "address",
          "name": "buyer",
          "type": "address"
        },
        {
          "internalType": "uint256",
          "name": "status",
          "type": "uint256"
        }
      ],
      "stateMutability": "view",
      "type": "function",
      "constant": true
    },
    {
      "inputs": [],
      "name": "getLengthProduct",
      "outputs": [
        {
          "internalType": "uint256",
          "name": "",
          "type": "uint256"
        }
      ],
      "stateMutability": "view",
      "type": "function",
      "constant": true
    }
  ],
  "bytecode": "0x608060405234801561001057600080fd5b506040516118943803806118948339818101604052602081101561003357600080fd5b8101908080519060200190929190505050600061005461013960201b60201c565b9050806000806101000a81548173ffffffffffffffffffffffffffffffffffffffff021916908373ffffffffffffffffffffffffffffffffffffffff1602179055508073ffffffffffffffffffffffffffffffffffffffff16600073ffffffffffffffffffffffffffffffffffffffff167f8be0079c531659141344cd1fd0a4f28419497f9722a3daafe3b4186f6b6457e060405160405180910390a35080600560006101000a81548173ffffffffffffffffffffffffffffffffffffffff021916908373ffffffffffffffffffffffffffffffffffffffff16021790555050610141565b600033905090565b611744806101506000396000f3fe608060405234801561001057600080fd5b50600436106100cf5760003560e01c80638da5cb5b1161008c578063dc3958cc11610066578063dc3958cc146103ba578063debad27f146103fe578063df235fe4146104f4578063f2fde38b1461054e576100cf565b80638da5cb5b1461028d578063b15247d9146102c1578063b8fcf93714610386576100cf565b80631f16653b146100d457806338e76a03146100f25780633e12f2d61461012057806370c9aedd1461013e578063715018a6146101825780637acc0b201461018c575b600080fd5b6100dc610592565b6040518082815260200191505060405180910390f35b61011e6004803603602081101561010857600080fd5b8101908080359060200190929190505050610598565b005b610128610a5d565b6040518082815260200191505060405180910390f35b6101806004803603602081101561015457600080fd5b81019080803573ffffffffffffffffffffffffffffffffffffffff169060200190929190505050610a6a565b005b61018a610b73565b005b6101b8600480360360208110156101a257600080fd5b8101908080359060200190929190505050610ce0565b60405180878152602001806020018681526020018573ffffffffffffffffffffffffffffffffffffffff1681526020018473ffffffffffffffffffffffffffffffffffffffff16815260200183600281111561021057fe5b8152602001828103825287818151815260200191508051906020019080838360005b8381101561024d578082015181840152602081019050610232565b50505050905090810190601f16801561027a5780820380516001836020036101000a031916815260200191505b5097505050505050505060405180910390f35b610295610e01565b604051808273ffffffffffffffffffffffffffffffffffffffff16815260200191505060405180910390f35b610384600480360360408110156102d757600080fd5b81019080803590602001906401000000008111156102f457600080fd5b82018360208201111561030657600080fd5b8035906020019184600183028401116401000000008311171561032857600080fd5b91908080601f016020809104026020016040519081016040528093929190818152602001838380828437600081840152601f19601f82011690508083019250505050505050919291929080359060200190929190505050610e2a565b005b61038e61109f565b604051808273ffffffffffffffffffffffffffffffffffffffff16815260200191505060405180910390f35b6103fc600480360360208110156103d057600080fd5b81019080803573ffffffffffffffffffffffffffffffffffffffff1690602001909291905050506110c5565b005b61042a6004803603602081101561041457600080fd5b81019080803590602001909291905050506111cf565b60405180878152602001806020018681526020018573ffffffffffffffffffffffffffffffffffffffff1681526020018473ffffffffffffffffffffffffffffffffffffffff168152602001838152602001828103825287818151815260200191508051906020019080838360005b838110156104b4578082015181840152602081019050610499565b50505050905090810190601f1680156104e15780820380516001836020036101000a031916815260200191505b5097505050505050505060405180910390f35b6105366004803603602081101561050a57600080fd5b81019080803573ffffffffffffffffffffffffffffffffffffffff1690602001909291905050506113c9565b60405180821515815260200191505060405180910390f35b6105906004803603602081101561056457600080fd5b81019080803573ffffffffffffffffffffffffffffffffffffffff16906020019092919050505061141f565b005b60025481565b336003600083815260200190815260200160002060040160006101000a81548173ffffffffffffffffffffffffffffffffffffffff021916908373ffffffffffffffffffffffffffffffffffffffff16021790555060006003600083815260200190815260200160002060020154905080600560009054906101000a900473ffffffffffffffffffffffffffffffffffffffff1673ffffffffffffffffffffffffffffffffffffffff1663dd62ed3e33306040518363ffffffff1660e01b8152600401808373ffffffffffffffffffffffffffffffffffffffff1681526020018273ffffffffffffffffffffffffffffffffffffffff1681526020019250505060206040518083038186803b1580156106b057600080fd5b505afa1580156106c4573d6000803e3d6000fd5b505050506040513d60208110156106da57600080fd5b81019080805190602001909291905050501015610742576040517f08c379a00000000000000000000000000000000000000000000000000000000081526004018080602001828103825260248152602001806116eb6024913960400191505060405180910390fd5b600560009054906101000a900473ffffffffffffffffffffffffffffffffffffffff1673ffffffffffffffffffffffffffffffffffffffff166323b872dd6003600085815260200190815260200160002060040160009054906101000a900473ffffffffffffffffffffffffffffffffffffffff166003600086815260200190815260200160002060030160009054906101000a900473ffffffffffffffffffffffffffffffffffffffff16846040518463ffffffff1660e01b8152600401808473ffffffffffffffffffffffffffffffffffffffff1681526020018373ffffffffffffffffffffffffffffffffffffffff1681526020018281526020019350505050602060405180830381600087803b15801561085f57600080fd5b505af1158015610873573d6000803e3d6000fd5b505050506040513d602081101561088957600080fd5b81019080805190602001909291905050505060016003600084815260200190815260200160002060040160146101000a81548160ff021916908360028111156108ce57fe5b02179055507f0ec3a2a7db8265630b6b34629ebe9900056ed7ebc18bebe60aa2b33fa345a5948260036000858152602001908152602001600020600101836003600087815260200190815260200160002060040160009054906101000a900473ffffffffffffffffffffffffffffffffffffffff166003600088815260200190815260200160002060030160009054906101000a900473ffffffffffffffffffffffffffffffffffffffff1660405180868152602001806020018581526020018473ffffffffffffffffffffffffffffffffffffffff1681526020018373ffffffffffffffffffffffffffffffffffffffff168152602001828103825286818154600181600116156101000203166002900481526020019150805460018160011615610100020316600290048015610a475780601f10610a1c57610100808354040283529160200191610a47565b820191906000526020600020905b815481529060010190602001808311610a2a57829003601f168201915b5050965050505050505060405180910390a15050565b6000600480549050905090565b610a72611611565b73ffffffffffffffffffffffffffffffffffffffff16610a90610e01565b73ffffffffffffffffffffffffffffffffffffffff1614610b19576040517f08c379a00000000000000000000000000000000000000000000000000000000081526004018080602001828103825260208152602001807f4f776e61626c653a2063616c6c6572206973206e6f7420746865206f776e657281525060200191505060405180910390fd5b60018060008373ffffffffffffffffffffffffffffffffffffffff1673ffffffffffffffffffffffffffffffffffffffff16815260200190815260200160002060006101000a81548160ff02191690831515021790555050565b610b7b611611565b73ffffffffffffffffffffffffffffffffffffffff16610b99610e01565b73ffffffffffffffffffffffffffffffffffffffff1614610c22576040517f08c379a00000000000000000000000000000000000000000000000000000000081526004018080602001828103825260208152602001807f4f776e61626c653a2063616c6c6572206973206e6f7420746865206f776e657281525060200191505060405180910390fd5b600073ffffffffffffffffffffffffffffffffffffffff1660008054906101000a900473ffffffffffffffffffffffffffffffffffffffff1673ffffffffffffffffffffffffffffffffffffffff167f8be0079c531659141344cd1fd0a4f28419497f9722a3daafe3b4186f6b6457e060405160405180910390a360008060006101000a81548173ffffffffffffffffffffffffffffffffffffffff021916908373ffffffffffffffffffffffffffffffffffffffff160217905550565b6003602052806000526040600020600091509050806000015490806001018054600181600116156101000203166002900480601f016020809104026020016040519081016040528092919081815260200182805460018160011615610100020316600290048015610d925780601f10610d6757610100808354040283529160200191610d92565b820191906000526020600020905b815481529060010190602001808311610d7557829003601f168201915b5050505050908060020154908060030160009054906101000a900473ffffffffffffffffffffffffffffffffffffffff16908060040160009054906101000a900473ffffffffffffffffffffffffffffffffffffffff16908060040160149054906101000a900460ff16905086565b60008060009054906101000a900473ffffffffffffffffffffffffffffffffffffffff16905090565b6040518060c0016040528060025481526020018381526020018281526020013373ffffffffffffffffffffffffffffffffffffffff168152602001600073ffffffffffffffffffffffffffffffffffffffff16815260200160006002811115610e8f57fe5b815250600360006002548152602001908152602001600020600082015181600001556020820151816001019080519060200190610ecd929190611619565b506040820151816002015560608201518160030160006101000a81548173ffffffffffffffffffffffffffffffffffffffff021916908373ffffffffffffffffffffffffffffffffffffffff16021790555060808201518160040160006101000a81548173ffffffffffffffffffffffffffffffffffffffff021916908373ffffffffffffffffffffffffffffffffffffffff16021790555060a08201518160040160146101000a81548160ff02191690836002811115610f8a57fe5b0217905550905050600460025490806001815401808255809150506001900390600052602060002001600090919091909150557f52402cafb2ecec722b103e8f203f83362148c168659dc96678c2c6850d12dd9f60025483833360405180858152602001806020018481526020018373ffffffffffffffffffffffffffffffffffffffff168152602001828103825285818151815260200191508051906020019080838360005b8381101561104c578082015181840152602081019050611031565b50505050905090810190601f1680156110795780820380516001836020036101000a031916815260200191505b509550505050505060405180910390a16002600081548092919060010191905055505050565b600560009054906101000a900473ffffffffffffffffffffffffffffffffffffffff1681565b6110cd611611565b73ffffffffffffffffffffffffffffffffffffffff166110eb610e01565b73ffffffffffffffffffffffffffffffffffffffff1614611174576040517f08c379a00000000000000000000000000000000000000000000000000000000081526004018080602001828103825260208152602001807f4f776e61626c653a2063616c6c6572206973206e6f7420746865206f776e657281525060200191505060405180910390fd5b6000600160008373ffffffffffffffffffffffffffffffffffffffff1673ffffffffffffffffffffffffffffffffffffffff16815260200190815260200160002060006101000a81548160ff02191690831515021790555050565b600060606000806000806000600360008981526020019081526020016000206040518060c001604052908160008201548152602001600182018054600181600116156101000203166002900480601f01602080910402602001604051908101604052809291908181526020018280546001816001161561010002031660029004801561129c5780601f106112715761010080835404028352916020019161129c565b820191906000526020600020905b81548152906001019060200180831161127f57829003601f168201915b50505050508152602001600282015481526020016003820160009054906101000a900473ffffffffffffffffffffffffffffffffffffffff1673ffffffffffffffffffffffffffffffffffffffff1673ffffffffffffffffffffffffffffffffffffffff1681526020016004820160009054906101000a900473ffffffffffffffffffffffffffffffffffffffff1673ffffffffffffffffffffffffffffffffffffffff1673ffffffffffffffffffffffffffffffffffffffff1681526020016004820160149054906101000a900460ff16600281111561137957fe5b600281111561138457fe5b815250509050806000015181602001518260400151836060015184608001518560a0015160028111156113b357fe5b9650965096509650965096505091939550919395565b6000600160008373ffffffffffffffffffffffffffffffffffffffff1673ffffffffffffffffffffffffffffffffffffffff16815260200190815260200160002060009054906101000a900460ff169050919050565b611427611611565b73ffffffffffffffffffffffffffffffffffffffff16611445610e01565b73ffffffffffffffffffffffffffffffffffffffff16146114ce576040517f08c379a00000000000000000000000000000000000000000000000000000000081526004018080602001828103825260208152602001807f4f776e61626c653a2063616c6c6572206973206e6f7420746865206f776e657281525060200191505060405180910390fd5b600073ffffffffffffffffffffffffffffffffffffffff168173ffffffffffffffffffffffffffffffffffffffff161415611554576040517f08c379a00000000000000000000000000000000000000000000000000000000081526004018080602001828103825260268152602001806116c56026913960400191505060405180910390fd5b8073ffffffffffffffffffffffffffffffffffffffff1660008054906101000a900473ffffffffffffffffffffffffffffffffffffffff1673ffffffffffffffffffffffffffffffffffffffff167f8be0079c531659141344cd1fd0a4f28419497f9722a3daafe3b4186f6b6457e060405160405180910390a3806000806101000a81548173ffffffffffffffffffffffffffffffffffffffff021916908373ffffffffffffffffffffffffffffffffffffffff16021790555050565b600033905090565b828054600181600116156101000203166002900490600052602060002090601f01602090048101928261164f5760008555611696565b82601f1061166857805160ff1916838001178555611696565b82800160010185558215611696579182015b8281111561169557825182559160200191906001019061167a565b5b5090506116a391906116a7565b5090565b5b808211156116c05760008160009055506001016116a8565b509056fe4f776e61626c653a206e6577206f776e657220697320746865207a65726f2061646472657373496e73756666696369656e7420616c6c6f77616e636520666f7220746865206275796572a264697066735822122050b03ae16d5f70854825b1423bb099aa1f64070bc2999a282a2467e809e93a9064736f6c63430007060033",
  "immutableReferences": {},
  "source": "// SPDX-License-Identifier: MIT\r\npragma solidity >=0.6.1;\r\nimport \"@openzeppelin/contracts/token/ERC20/IERC20.sol\";\r\nimport \"./KycContract.sol\";\r\nimport \"./MyToken.sol\";\r\n\r\ncontract Marketplace is Ownable, KycContract {\r\n    uint256 public productCounter;\r\n    enum ProductStatus { Available, Sold, Shipped }\r\n\r\n    event ProductAdded(\r\n        uint256 productId,\r\n        string name,\r\n        uint256 priceInTokens,\r\n        address seller\r\n    );\r\n\r\n    event ProductPurchased(\r\n        uint256 productId,\r\n        string name,\r\n        uint256 priceInTokens,\r\n        address buyer,\r\n        address seller\r\n    );\r\n\r\n    struct Product {\r\n        uint256 id;\r\n        string name;\r\n        uint256 price;\r\n        address payable seller;\r\n        address buyer;\r\n        ProductStatus status;\r\n    }\r\n    mapping(uint256 => Product) public products;\r\n    uint256[] private size;\r\n\r\n    IERC20 public myToken;\r\n\r\n    constructor(address _tokenAddress) {\r\n        myToken = IERC20(_tokenAddress);\r\n    }\r\n\r\n    // modifier notSold(uint256 _productId) {\r\n    //     require(!products[_productId].isSold, \"Product already sold\");\r\n    //     _;\r\n    // }\r\n\r\n    modifier validPrice(uint256 _price) {\r\n        require(_price > 0, \"Price must be greater than zero\");\r\n        _;\r\n    }\r\n\r\n\r\n    function addProduct(string memory _name, uint256 _price) external {\r\n        products[productCounter] = Product(\r\n            productCounter,\r\n            _name,\r\n            _price,\r\n            payable(msg.sender),\r\n            address(0),\r\n            ProductStatus.Available \r\n        );\r\n        size.push(productCounter);\r\n        emit ProductAdded(productCounter, _name, _price, msg.sender);\r\n        productCounter++;\r\n    }\r\n\r\n    function purchaseProduct(uint256 _productId) external {\r\n\r\n        products[_productId].buyer = msg.sender;\r\n        uint256 price = products[_productId].price;\r\n        // Ensure that the buyer has enough allowance to purchase the product\r\n        require(\r\n            myToken.allowance(msg.sender, address(this)) >= price,\r\n            \"Insufficient allowance for the buyer\"\r\n        );\r\n        // Transfer tokens from the buyer to the seller\r\n        myToken.transferFrom(products[_productId].buyer,products[_productId].seller, price);\r\n        products[_productId].status = ProductStatus.Sold;\r\n        \r\n\r\n        // Emit the product purchase event\r\n        emit ProductPurchased(\r\n            _productId,\r\n            products[_productId].name,\r\n            price,\r\n            products[_productId].buyer,\r\n            products[_productId].seller\r\n        );\r\n    }\r\n\r\n    function getProducts(uint256 _productId) public view returns(uint256 id,\r\n        string memory name,\r\n        uint256 price,\r\n        address payable seller,\r\n        address buyer,\r\n        uint256 status){\r\n        Product memory p = products[_productId];\r\n        return(p.id,p.name,p.price,p.seller,p.buyer,uint256(p.status));\r\n    }\r\n\r\n    function getLengthProduct() public view returns(uint256){\r\n        return size.length;\r\n    }\r\n}\r\n",
  "sourcePath": "D:\\BlockChain\\truffle\\contracts\\MarketPlace.sol",
  "compiler": {
    "name": "solc",
    "version": "0.7.6+commit.7338295f.Emscripten.clang"
  },
  "schemaVersion": "3.4.16",
  "updatedAt": "2023-12-15T14:31:16.901Z",
  "networkType": "ethereum",
  "devdoc": {
    "kind": "dev",
    "methods": {
      "owner()": {
        "details": "Returns the address of the current owner."
      },
      "renounceOwnership()": {
        "details": "Leaves the contract without owner. It will not be possible to call `onlyOwner` functions anymore. Can only be called by the current owner. NOTE: Renouncing ownership will leave the contract without an owner, thereby removing any functionality that is only available to the owner."
      },
      "transferOwnership(address)": {
        "details": "Transfers ownership of the contract to a new account (`newOwner`). Can only be called by the current owner."
      }
    },
    "version": 1
  },
  "userdoc": {
    "kind": "user",
    "methods": {},
    "version": 1
  }
}